S01A00006469676974616C20746563686F6D657465722E73726563DC
S11300000C942A000C9447000C9447000C9447006D
S11300100C9447000C9447000C9447000C94470040
S11300200C9447000C9447000C9447000C94470030
S11300300C9447000C9447000C9447000C94470020
S11300400C9447000C9447000C94AB000C944700AC
S11300500C94470011241FBECFE5D4E0DEBFCDBF12
S113006010E0A0E6B0E0E6EBF3E002C005900D92EC
S1130070A838B107D9F720E0A8E8B0E001C01D9284
S1130080AA38B207E1F70E9467000C94D9010C94D6
S11300900000CF93DF93CDB7DEB72A970FB6F8945D
S11300A0DEBF0FBECDBF4AE050E0BE016F5F7F4FA1
S11300B00E949901CE0101960E9451012A960FB621
S11300C0F894DEBF0FBECDBFDF91CF9108958CE0D1
S11300D00E9461010E94380180E690E00E94510173
S11300E02FE936E881E0215030408040E1F700C03C
S11300F0000080E484BF80E28BBFCCE378949FE36C
S11301002DE033E0915020403040E1F700C0000082
S1130110F8940E9438018CE690E00E94510161E05D
S113012080E00E942E0180918800909189000097C0
S113013029F48CE790E00E94510108C09C01C29F01
S1130140C001C39F900D11240E94490010928900A0
S113015010928800D3CF1F920F920FB60F921124E2
S11301608F939F938091880090918900019690933A
S11301708900809388009F918F910F900FBE0F90FC
S11301801F901895AA9A00C0AA980895CF93C82FD3
S1130190662311F0A89A01C0A898A998A39AA49AD2
S11301A0A59AA69AAE98AD98AC98AB98CC230CF4CB
S11301B0AE9AC6FDAD9AC5FDAC9AC4FDAB9A0E9439
S11301C0C200AE98AD98AC98AB98C3FDAE9AC2FD90
S11301D0AD9AC1FDAC9AC0FDAB9A0E94C200AB9A25
S11301E0AC9AAD9AAE9ACF910895882311F0A89A4B
S11301F001C0A898A99AA398A498A598A698AA9A81
S113020000C09B9902C080E001C080E19C9980629B
S11302109D9980649E998068AA9800C0AA9A00C09B
S11302209B9981609C9982609D9984609E99886065
S1130230AA98089580E00E94F5008823DCF300C0AA
S113024080E00E94F5000895CF93C82F0E941A0100
S113025060E08C2F0E94C600CF910895611104C004
S113026080580E942401089580540E942401089516
S113027081E00E9424010895CF93C82F0E941A019F
S1130280CA3049F4803410F480E401C080E080581E
S11302900E94240104C061E08C2F0E94C600CF910B
S11302A00895CF93DF93EC012196FC01808188238C
S11302B029F00E943C0189918111FBCFDF91CF91FC
S11302C00895CF93C82FA09AA19AA29AA39AA49A08
S11302D0A59AA69AE0EAFFE03197F1F7AC9AAB9AB7
S11302E00E94C200E0EEF4E03197F1F70E94C200F0
S11302F0E0E1F0E03197F1F70E94C200E0E1F0E0C4
S11303003197F1F7AB980E94C200E0E1F0E0319739
S1130310F1F788E20E94240188E00E9424010E94EF
S1130320380186E00E9424018C2F0E942401CF9181
S113033008954532510520F4423010F00C94A40184
S1130340FB011082CB010895BB274A3031F4992375
S113035022F4BDE2909581959F4F0C94B001BB2788
S1130360FB015527AA27880F991FAA1FA41710F06D
S1130370A41B83955051B9F7A05DAA3308F0A95D79
S1130380A193009779F7B111B1931192CB010C9419
S1130390C901DC01FC01672F71917723E1F73297E2
S11303A004C07C916D9370836291AE17BF07C8F34C
S10903B00895F894FFCF4C
S11303B62020202077656C636F6D6500524F544191
S11303C654494F4E20494E2052504D004E4F205214
S10B03D64F544154494F4E00FD
S9030000FC
